{
  "_format": "hh-sol-artifact-1",
  "contractName": "DocumentVerification",
  "sourceName": "contracts/DocumentVerification.sol",
  "abi": [
    {
      "inputs": [],
      "stateMutability": "nonpayable",
      "type": "constructor"
    },
    {
      "anonymous": false,
      "inputs": [
        {
          "indexed": true,
          "internalType": "address",
          "name": "student",
          "type": "address"
        },
        {
          "indexed": false,
          "internalType": "bytes32",
          "name": "documentHash",
          "type": "bytes32"
        }
      ],
      "name": "DocumentSubmitted",
      "type": "event"
    },
    {
      "anonymous": false,
      "inputs": [
        {
          "indexed": true,
          "internalType": "address",
          "name": "student",
          "type": "address"
        },
        {
          "indexed": false,
          "internalType": "bytes32",
          "name": "documentHash",
          "type": "bytes32"
        },
        {
          "indexed": false,
          "internalType": "bool",
          "name": "isVerified",
          "type": "bool"
        }
      ],
      "name": "DocumentVerified",
      "type": "event"
    },
    {
      "inputs": [
        {
          "internalType": "bytes32",
          "name": "",
          "type": "bytes32"
        }
      ],
      "name": "documents",
      "outputs": [
        {
          "internalType": "bytes32",
          "name": "documentHash",
          "type": "bytes32"
        },
        {
          "internalType": "address",
          "name": "authority",
          "type": "address"
        },
        {
          "internalType": "uint256",
          "name": "issuedDate",
          "type": "uint256"
        },
        {
          "internalType": "string",
          "name": "documentType",
          "type": "string"
        },
        {
          "internalType": "string",
          "name": "documentMetadata",
          "type": "string"
        }
      ],
      "stateMutability": "view",
      "type": "function"
    },
    {
      "inputs": [
        {
          "internalType": "address",
          "name": "student",
          "type": "address"
        }
      ],
      "name": "getStudentDocuments",
      "outputs": [
        {
          "internalType": "bytes32[]",
          "name": "",
          "type": "bytes32[]"
        }
      ],
      "stateMutability": "view",
      "type": "function"
    },
    {
      "inputs": [
        {
          "internalType": "address",
          "name": "student",
          "type": "address"
        },
        {
          "internalType": "bytes32",
          "name": "documentHash",
          "type": "bytes32"
        },
        {
          "internalType": "string",
          "name": "documentType",
          "type": "string"
        },
        {
          "internalType": "string",
          "name": "documentMetadata",
          "type": "string"
        }
      ],
      "name": "issueDocument",
      "outputs": [],
      "stateMutability": "nonpayable",
      "type": "function"
    },
    {
      "inputs": [],
      "name": "owner",
      "outputs": [
        {
          "internalType": "address",
          "name": "",
          "type": "address"
        }
      ],
      "stateMutability": "view",
      "type": "function"
    },
    {
      "inputs": [
        {
          "internalType": "address",
          "name": "",
          "type": "address"
        },
        {
          "internalType": "uint256",
          "name": "",
          "type": "uint256"
        }
      ],
      "name": "studentDocuments",
      "outputs": [
        {
          "internalType": "bytes32",
          "name": "",
          "type": "bytes32"
        }
      ],
      "stateMutability": "view",
      "type": "function"
    },
    {
      "inputs": [
        {
          "internalType": "bytes32",
          "name": "documentHash",
          "type": "bytes32"
        }
      ],
      "name": "verifyDocument",
      "outputs": [],
      "stateMutability": "nonpayable",
      "type": "function"
    }
  ],
  "bytecode": "0x6080604052348015600f57600080fd5b5033600260006101000a81548173ffffffffffffffffffffffffffffffffffffffff021916908373ffffffffffffffffffffffffffffffffffffffff160217905550610f85806100606000396000f3fe608060405234801561001057600080fd5b50600436106100625760003560e01c80631d848ec8146100675780632b2805db146100975780633343b626146100cb57806372fefe6e146100fb5780638da5cb5b14610117578063fe35089f14610135575b600080fd5b610081600480360381019061007c91906106b3565b610151565b60405161008e91906107a8565b60405180910390f35b6100b160048036038101906100ac91906107f6565b6101e8565b6040516100c29594939291906108ea565b60405180910390f35b6100e560048036038101906100e09190610977565b61034e565b6040516100f291906109b7565b60405180910390f35b61011560048036038101906101109190610b07565b61037f565b005b61011f610512565b60405161012c9190610ba6565b60405180910390f35b61014f600480360381019061014a91906107f6565b610538565b005b6060600160008373ffffffffffffffffffffffffffffffffffffffff1673ffffffffffffffffffffffffffffffffffffffff1681526020019081526020016000208054806020026020016040519081016040528092919081815260200182805480156101dc57602002820191906000526020600020905b8154815260200190600101908083116101c8575b50505050509050919050565b60006020528060005260406000206000915090508060000154908060010160009054906101000a900473ffffffffffffffffffffffffffffffffffffffff169080600201549080600301805461023d90610bf0565b80601f016020809104026020016040519081016040528092919081815260200182805461026990610bf0565b80156102b65780601f1061028b576101008083540402835291602001916102b6565b820191906000526020600020905b81548152906001019060200180831161029957829003601f168201915b5050505050908060040180546102cb90610bf0565b80601f01602080910402602001604051908101604052809291908181526020018280546102f790610bf0565b80156103445780601f1061031957610100808354040283529160200191610344565b820191906000526020600020905b81548152906001019060200180831161032757829003601f168201915b5050505050905085565b6001602052816000526040600020818154811061036a57600080fd5b90600052602060002001600091509150505481565b6040518060a001604052808481526020013373ffffffffffffffffffffffffffffffffffffffff168152602001428152602001838152602001828152506000808581526020019081526020016000206000820151816000015560208201518160010160006101000a81548173ffffffffffffffffffffffffffffffffffffffff021916908373ffffffffffffffffffffffffffffffffffffffff16021790555060408201518160020155606082015181600301908161043e9190610dcd565b5060808201518160040190816104549190610dcd565b50905050600160008573ffffffffffffffffffffffffffffffffffffffff1673ffffffffffffffffffffffffffffffffffffffff1681526020019081526020016000208390806001815401808255809150506001900390600052602060002001600090919091909150558373ffffffffffffffffffffffffffffffffffffffff167fe806ceba5b9d047ea9d51aad0b662c2b3091f2cd76993646604a907dfc655f518460405161050491906109b7565b60405180910390a250505050565b600260009054906101000a900473ffffffffffffffffffffffffffffffffffffffff1681565b60008060008381526020019081526020016000209050600073ffffffffffffffffffffffffffffffffffffffff168160010160009054906101000a900473ffffffffffffffffffffffffffffffffffffffff1673ffffffffffffffffffffffffffffffffffffffff16036105e1576040517f08c379a00000000000000000000000000000000000000000000000000000000081526004016105d890610eeb565b60405180910390fd5b60008282600001541490503373ffffffffffffffffffffffffffffffffffffffff167f5ab392738242336dd5cbd4028c5146d7117e1aae482efe6ecf7821cd9c23c3d38483604051610634929190610f26565b60405180910390a2505050565b6000604051905090565b600080fd5b600080fd5b600073ffffffffffffffffffffffffffffffffffffffff82169050919050565b600061068082610655565b9050919050565b61069081610675565b811461069b57600080fd5b50565b6000813590506106ad81610687565b92915050565b6000602082840312156106c9576106c861064b565b5b60006106d78482850161069e565b91505092915050565b600081519050919050565b600082825260208201905092915050565b6000819050602082019050919050565b6000819050919050565b61071f8161070c565b82525050565b60006107318383610716565b60208301905092915050565b6000602082019050919050565b6000610755826106e0565b61075f81856106eb565b935061076a836106fc565b8060005b8381101561079b5781516107828882610725565b975061078d8361073d565b92505060018101905061076e565b5085935050505092915050565b600060208201905081810360008301526107c2818461074a565b905092915050565b6107d38161070c565b81146107de57600080fd5b50565b6000813590506107f0816107ca565b92915050565b60006020828403121561080c5761080b61064b565b5b600061081a848285016107e1565b91505092915050565b61082c8161070c565b82525050565b61083b81610675565b82525050565b6000819050919050565b61085481610841565b82525050565b600081519050919050565b600082825260208201905092915050565b60005b83811015610894578082015181840152602081019050610879565b60008484015250505050565b6000601f19601f8301169050919050565b60006108bc8261085a565b6108c68185610865565b93506108d6818560208601610876565b6108df816108a0565b840191505092915050565b600060a0820190506108ff6000830188610823565b61090c6020830187610832565b610919604083018661084b565b818103606083015261092b81856108b1565b9050818103608083015261093f81846108b1565b90509695505050505050565b61095481610841565b811461095f57600080fd5b50565b6000813590506109718161094b565b92915050565b6000806040838503121561098e5761098d61064b565b5b600061099c8582860161069e565b92505060206109ad85828601610962565b9150509250929050565b60006020820190506109cc6000830184610823565b92915050565b600080fd5b600080fd5b7f4e487b7100000000000000000000000000000000000000000000000000000000600052604160045260246000fd5b610a14826108a0565b810181811067ffffffffffffffff82111715610a3357610a326109dc565b5b80604052505050565b6000610a46610641565b9050610a528282610a0b565b919050565b600067ffffffffffffffff821115610a7257610a716109dc565b5b610a7b826108a0565b9050602081019050919050565b82818337600083830152505050565b6000610aaa610aa584610a57565b610a3c565b905082815260208101848484011115610ac657610ac56109d7565b5b610ad1848285610a88565b509392505050565b600082601f830112610aee57610aed6109d2565b5b8135610afe848260208601610a97565b91505092915050565b60008060008060808587031215610b2157610b2061064b565b5b6000610b2f8782880161069e565b9450506020610b40878288016107e1565b935050604085013567ffffffffffffffff811115610b6157610b60610650565b5b610b6d87828801610ad9565b925050606085013567ffffffffffffffff811115610b8e57610b8d610650565b5b610b9a87828801610ad9565b91505092959194509250565b6000602082019050610bbb6000830184610832565b92915050565b7f4e487b7100000000000000000000000000000000000000000000000000000000600052602260045260246000fd5b60006002820490506001821680610c0857607f821691505b602082108103610c1b57610c1a610bc1565b5b50919050565b60008190508160005260206000209050919050565b60006020601f8301049050919050565b600082821b905092915050565b600060088302610c837fffffffffffffffffffffffffffffffffffffffffffffffffffffffffffffffff82610c46565b610c8d8683610c46565b95508019841693508086168417925050509392505050565b6000819050919050565b6000610cca610cc5610cc084610841565b610ca5565b610841565b9050919050565b6000819050919050565b610ce483610caf565b610cf8610cf082610cd1565b848454610c53565b825550505050565b600090565b610d0d610d00565b610d18818484610cdb565b505050565b5b81811015610d3c57610d31600082610d05565b600181019050610d1e565b5050565b601f821115610d8157610d5281610c21565b610d5b84610c36565b81016020851015610d6a578190505b610d7e610d7685610c36565b830182610d1d565b50505b505050565b600082821c905092915050565b6000610da460001984600802610d86565b1980831691505092915050565b6000610dbd8383610d93565b9150826002028217905092915050565b610dd68261085a565b67ffffffffffffffff811115610def57610dee6109dc565b5b610df98254610bf0565b610e04828285610d40565b600060209050601f831160018114610e375760008415610e25578287015190505b610e2f8582610db1565b865550610e97565b601f198416610e4586610c21565b60005b82811015610e6d57848901518255600182019150602085019450602081019050610e48565b86831015610e8a5784890151610e86601f891682610d93565b8355505b6001600288020188555050505b505050505050565b7f446f63756d656e74206e6f7420666f756e640000000000000000000000000000600082015250565b6000610ed5601283610865565b9150610ee082610e9f565b602082019050919050565b60006020820190508181036000830152610f0481610ec8565b9050919050565b60008115159050919050565b610f2081610f0b565b82525050565b6000604082019050610f3b6000830185610823565b610f486020830184610f17565b939250505056fea2646970667358221220527e17443e8b828a4ba3c41c3292a18c1a9df1f2e030adc7d01ca8cd1d780a6a64736f6c634300081c0033",
  "linkReferences": {},
  "deployedLinkReferences": {}
}